:020000040800F2
:100000000000022049BC0008D5AA0008D7AA0008B1
:10001000D9AA0008DBAA0008DDAA00080000000039
:10002000000000000000000000000000DFAA00083F
:10003000E1AA000800000000E3AA0008E5AA000801
:1000400099BC000899BC000899BC000899BC00083C
:1000500099BC000899BC000899BC000899BC00082C
:1000600099BC000899BC000899BC000899BC00081C
:1000700099BC000899BC000899BC000899BC00080C
:1000800099BC000899BC000899BC000899BC0008FC
:1000900099BC000899BC000899BC000899BC0008EC
:1000A00099BC000899BC000899BC000899BC0008DC
:1000B000EDAA000899BC000899BC000899BC00088A
:1000C00099BC000899BC000899BC000899BC0008BC
:1000D00099BC000899BC000899BC000899BC0008AC
:1000E00099BC000899BC000899BC000899BC00089C
:1000F00099BC000899BC000899BC000899BC00088C
:1001000099BC000899BC000899BC000899BC00087B
:1001100099BC000899BC000899BC000899BC00086B
:1001200099BC000899BC000899BC000899BC00085B
:1001300099BC000899BC000899BC000899BC00084B
:1001400099BC000899BC000899BC000899BC00083B
:1001500099BC000899BC000899BC000899BC00082B
:1001600099BC000899BC000899BC000899BC00081B
:1001700099BC000899BC000899BC00080000000068
:0401800099BC00081E
:1001840010B5054C237833B9044B13B10448AFF3CD
:1001940000800123237010BD8400002000000000B3
:1001A400B4D1000808B5034B1BB103490348AFF3AE
:1001B400008008BD0000000088000020B4D10008C1
:1001C40053B94AB9002908BF00281CBF4FF0FF31BA
:1001D4004FF0FF3000F074B9ADF1080C6DE904CEB6
:1001E40000F006F8DDF804E0DDE9022304B070470E
:1001F4002DE9F0478C460446089E002B4BD18A42D9
:10020400154667D9B2FA82F24AB1C2F1200701FA5F
:1002140002F320FA07F7954047EA030C94404FEAAB
:10022400154EBCFBFEF71FFA85F80EFB17C307FB40
:1002340008F9210C41EA0343994509D9EB1807F160
:10024400FF3180F01C81994540F21981023F2B4413
:10025400A3EB0903B3FBFEF00EFB103300FB08F124
:10026400A4B244EA0344A14209D92C1900F1FF3392
:1002740080F00781A14240F2048102382C4440EA14
:1002840007400027641A1EB10023D440C6E9004386
:100294003946BDE8F0878B4209D9002E00F0EC8086
:1002A4000027C6E9000138463946BDE8F087B3FAAD
:1002B40083F7002F48D18B4202D3824200F2FB80A5
:1002C400841A61EB030301209C46002EE0D0C6E9AA
:1002D400004CDDE702B9FFDEB2FA82F2002A40F0F8
:1002E4008F800127491B4FEA15481FFA85F9B1FB96
:1002F400F8FE08FB1E1109FB0EF04FEA144C4CEA01
:100304000143984207D9EB180EF1FF3102D298420B
:1003140000F2CD808E461B1AB3FBF8F008FB1033B5
:1003240009FB00F9A4B244EA0344A14507D92C19F6
:1003340000F1FF3302D2A14500F2B6801846A4EBC7
:10034400090440EA0E409EE7C7F12005BB4022FAAB
:1003540005FC4CEA030C21FA05F44FEA1C4EB4FBED
:10036400FEF91FFA8CF80EFB194420FA05F3B94084
:1003740009FB08FA19430B0C43EA0444A24502FAA8
:1003840007F200FA07F30BD91CEB040409F1FF3060
:1003940080F08880A24540F28580A9F10209644476
:1003A400A4EB0A04B4FBFEF00EFB104400FB08FAB5
:1003B40089B241EA0444A24508D91CEB040400F1C3
:1003C400FF316BD2A24569D90238644440EA09403E
:1003D400A0FB0289A4EB0A044C454146CE4654D303
:1003E40051D0002E69D05A1A64EB0E0404FA05F5B4
:1003F40022FA07F3FC401D43C6E90054002747E7EF
:100404009540C2F1200321FA03F04FEA1548B0FBEE
:10041400F8F71FFA85F908FB170024FA03F3914053
:1004240007FB09FC0B43190C41EA00418C4504FA13
:1004340002F407D9691807F1FF3031D28C452FD95E
:10044400023F2944A1EB0C01B1FBF8F008FB101C9E
:1004540000FB09FE99B241EA0C418E4507D969189F
:1004640000F1FF3318D28E4516D902382944A1EB86
:100474000E0140EA07473AE73746304608E70F4699
:10048400E6E61846FBE64345ABD2B8EB020169EB5E
:100494000C0201389646A4E71846E8E7084695E7B3
:1004A4000746CFE781467BE702382C4447E7AEF1A5
:1004B400020E2B442FE7384607E73746E8E600BF2D
:1004C400704700BF034613F8012B002AFBD1181A0A
:1004D400013870477BB972B90029BEBF00204FF0C4
:1004E400004106E008BF00281CBF6FF000414FF038
:1004F400FF30FFF7E5BFADF1080C6DE904CE00292C
:1005040009DB002B1ADBFFF773FEDDF804E0DDE9FD
:10051400022304B07047404261EB4101002B1BDB16
:10052400FFF766FEDDF804E0DDE9022304B0404293
:1005340061EB4101524263EB43037047524263EB68
:100544004303FFF755FEDDF804E0DDE9022304B0C0
:10055400404261EB41017047524263EB4303FFF7B2
:1005640047FEDDF804E0DDE9022304B0524263EB08
:100574004303704710B50446074B1868074BA3FBA9
:100584000030800900F0AAF8002221464FF0FF3025
:1005940000F052F8002010BD10000020D34D62106E
:1005A40008B50B4B1A6842F400721A601A6842F4D8
:1005B40080621A601A6842F480721A60032000F0A4
:1005C40029F80020FFF7D6FF0AF066FA002008BDDC
:1005D400003C0240024A136801331360704700BFB5
:1005E400B8020020014B1868704700BFB802002011
:1005F40030B583B00190FFF7F5FF0546019CB4F1D7
:10060400FF3F00D00134FFF7EDFF401BA042FAD3B7
:1006140003B030BD074AD36823F4E0631B041B0C0A
:10062400000200F4E060184340F0BF6040F4003082
:10063400D060704700ED00E030B4174BDB68C3F3C3
:100644000223C3F10704042C28BF04241D1D062D16
:1006540018D9033B4FF0FF3505FA04F421EA0401ED
:10066400994005FA03F322EA0303194300280BDB3C
:100674000901C9B200F1604000F5614080F800133F
:1006840030BC70470023E5E700F00F000901C9B250
:10069400024B1954F4E700BF00ED00E014ED00E054
:1006A40000F01F02400901239340024A42F820301F
:1006B400704700BF00E100E0BFF34F8F0549CA68EF
:1006C40002F4E062044B1343CB60BFF34F8F00BFCF
:1006D400FDE700BF00ED00E00400FA050138B0F1C9
:1006E400807F0AD2064B5860064AF02182F8231014
:1006F4000020986007221A6070470120704700BFED
:1007040010E000E000ED00E05079137943EA0023A3
:1007140007480B50D07893781B0443EA0063507861
:1007240043EA002312781343024A8B50704700BFF8
:100734004080024044800240016841F218028B5814
:1007440043F400538B507047016841F218028B58F0
:1007540043F002038B50704782B0084B1B68084A71
:10076400A2FB03235B0A00FB03F0019000BF019B83
:100774005A1E0192002BF9D102B0704710000020DC
:10078400D34D621010B582B0044600230193026871
:10079400136843F00803136003681B680193012086
:1007A400FFF7DAFF2368019A1A6002B010BD10B592
:1007B40082B00446002301930268136843F00403E3
:1007C400136003681B6801930120FFF7C5FF2368CA
:1007D400019A1A6002B010BD30B583B005460023FB
:1007E4000193026841F21804135943F4801313511E
:1007F40003681B5901930120FFF7AEFF2B68019A90
:100804001A5103B030BD000070B59EB0044629B142
:100814004FF40063C3604FF480438360E369002BAB
:100824006AD14FF48063079321680B68394A1A40F0
:10083400A368E06803430798034343F40073134336
:100844000B6023681D680120FFF7D2FE23681D603A
:10085400236840225A6023685D680120FFF7C8FEC0
:1008640023685D60236800259D602368DD6022683D
:10087400936923F0BE031B041B0C43F080039361B4
:1008840023689E690120FFF7B3FE23689E612368F5
:10089400DD612368DD690120FFF7AAFE2368DD61BD
:1008A400226841F2180551591B4B0B4043F0087361
:1008B40043F00403535123685E590120FFF798FE67
:1008C40023685E51236803F58053144A1A60236831
:1008D40003F580531D680120FFF78AFE236803F5A2
:1008E40080531D60A369012B09D062690021204651
:1008F400FFF70AFF1EB070BD0023079394E7216839
:1009040041F21C028B5843F4803343F040038B5074
:10091400EBE700BF0F8120FF233FDEF88020C102F8
:10092400F0B490F84540012C31D0012480F84540C2
:10093400022480F84440C162002401E0F9600134DB
:100944009C4217D265014F194FF480164E5140F264
:10095400F45606FB0426BE60C6691EB94E5946F419
:1009640040064E515D1EA542E8D9651C01EB4515B4
:10097400FD60E4E7026841F21003D150012380F8DE
:100984004430002380F845301846F0BC70470220FC
:10099400FBE7F0B490F84540012C2ED0012480F8F8
:1009A4004540022480F844408162002401E0E9606B
:1009B40001349C4214D266018D194FF000478F51C7
:1009C40044F2F4566E6040F2F45606FB0426AE6020
:1009D4005E1EA642EBD9661C01EB4616EE60E7E705
:1009E400026841F20C03D150012380F84430002303
:1009F40080F845301846F0BC70470220FBE7000041
:100A040090F84530012B00F08580012380F84530B3
:100A1400022380F84430B1B1C36A1A68002A1ADB91
:100A240030B440F2F45291421DD93B4AA2FB014238
:100A3400920A40F2F45404FB121404B10132012A64
:100A440011D0002347E0012380F84430002280F8CD
:100A5400452018467047122380F84430002380F85C
:100A64004530012070471A6842F040521A60C36A48
:100A7400C1F30C015960C26A136843F00043136068
:100A8400C36ADB68C362036841F214029A5812F025
:100A9400040F08D041F2140204219950026841F273
:100AA40004030021D150012380F84430002380F84E
:100AB4004530184630BC7047C56A2C6844F08054F1
:100AC4002C6011E0C56A2C6844F000442C60C46AB0
:100AD400E468C46201339A42D5D9C56A2C6824F00B
:100AE40040542C60002BE7D0C46A40F2F455656092
:100AF400541E9C42E6D1C56A2C6844F000542C6014
:100B0400064C04FB021404F2F454C56AC4F30C0446
:100B14006C60D7E7022070470BB002AC0CFAFFFF01
:100B240090F84530012B40D0012380F84530022352
:100B340080F84430836A1A68002A28DB1A6812F4A1
:100B4400807F19D0826B01328263012A12D0436301
:100B54001A68C2F30D42043AC263026B92680264DB
:100B6400DB688362012380F84430002380F8453039
:100B7400184670470363EAE71A6812F4007F0ED040
:100B840003630022426301228263DB6883620123E0
:100B940080F84430002280F8452018467047826B64
:100BA40001328263DB688362F1E702207047F8B5A3
:100BB40090F84430DBB2822B33D0164605468223AC
:100BC40080F844300268136903F01C03048AE402C9
:100BD400A4B223438C0104F4F8641C4344F00104DC
:100BE4001461FFF7FFFC074614F0010F10D0FFF764
:100BF400F9FCC01BB0F5803F02D22B681C69F3E7F7
:100C0400012385F84430002385F84530032007E0AC
:100C14002B685B699BB23360012385F84430002064
:100C2400F8BD0220FCE790F84430DBB2422B32D00E
:100C340070B50546422380F844300068036903F028
:100C44001C032C8AE402A4B223438C0104F4F86448
:100C54001C4344F0030492B242612B681C61FFF709
:100C6400C1FC064614F0010F10D0FFF7BBFC801B3B
:100C7400B0F5803F02D22B681C69F3E7012385F8A5
:100C84004430002385F84530032003E0012385F830
:100C94004430002070BD02207047000070B582B05F
:100CA40000230193002800F00681044690F84430A4
:100CB400002B34D000230093804B5A6C42F48042C2
:100CC4005A645B6C03F480430093009B7C4B5A682A
:100CD40022F400025A605A68216A0A435A6023685F
:100CE40003F580531A6842F001021A60FFF77AFC98
:100CF4000546236803F58052126812F0010F13D0E1
:100D0400FFF770FC401BB0F5FA7FF2D9032584F895
:100D14004450002384F84530284602B070BD80F862
:100D2400453009F08FFAC5E71D6925F01C0500F070
:100D34007FFD644B0344644A934255D845F008054B
:100D440023681D614FF4004200212046FFF76BFF2A
:100D54000546002858D1FF20FFF74AFC6368002BA2
:100D640000F08980FFF73EFC064601AA01212046D7
:100D7400FFF71DFFFFF736FC801B41F288339842D2
:100D84004AD8019B13F0040FEFD04FF48052002196
:100D94002046FFF748FF00284AD1FFF723FC064608
:100DA40001AA01212046FFF702FFFFF71BFC801B6D
:100DB40041F28833984243D8019B13F0200FEFD0BF
:100DC40001AA1F212046FFF7F2FE002844D1019B0F
:100DD40013F0100F48D04FF40062E26013F0040FD8
:100DE40045D00023A36056E0384B0344384A93426D
:100DF40002D845F00C05A3E7364B0344364A934228
:100E04009ED945F004059BE701212046FFF7FCFC31
:100E1400012584F844507FE701212046FFF7F4FCC4
:100E2400012384F84430002384F84530032573E714
:100E340001212046FFF7E8FC012584F844506BE7C4
:100E440001212046FFF7E0FC012384F8443000230D
:100E540084F8453003255FE701212046FFF7D4FCE1
:100E6400012584F8445057E70022E260B6E74FF4C6
:100E74008043A3600FE0E268C2F3CF02A368C3F328
:100E84004F031A4300212046FFF7CDFE58B940F620
:100E9400FF70FFF7ADFB00212046FFF7B5FC0123EF
:100EA40084F8443038E701212046FFF7ADFC0125E2
:100EB40084F8445030E701252EE700BF0038024093
:100EC4000038014000D3CEFEBFE1E40040F1E9FD6B
:100ED4003F787D0100796CFCFF59620238B590F8C7
:100EE4004530012B1AD00446012580F845500223D1
:100EF40080F84430FFF746FC2046FFF758FC2046B4
:100F0400FFF76AFC2046FFF717FC2046FFF71CFC9E
:100F140084F84450002084F8450038BD0220FCE7E2
:100F240000230F2B00F2DD80F0B482B039E00822F8
:100F340000E00022B2403A4302346A4E46F82420CC
:100F4400694A1468EA4302EA04064F6817F4803FCA
:100F540001D045EA0406644C2660646802EA04068B
:100F64004F6817F4003F01D045EA04065E4C666002
:100F7400A46802EA04064F6817F4801F01D045EA0A
:100F84000406594CA660E46822404E6816F4001F1B
:100F940001D045EA0402544CE26001330F2B00F205
:100FA4009D8001229A400C6804EA0205AA42F4D109
:100FB4004C68022C01D0122C10D1DE08083650F8EF
:100FC40026C003F00704A7000F24BC402CEA040C3D
:100FD4000C69BC4044EA0C0440F8264004685F00F5
:100FE4000326BE40F64306EA040C4C6804F00304EE
:100FF400BC4044EA0C0404604C6804F1FF3CBCF1BE
:10100400010F03D9112C01D0122C10D1846806EAE7
:10101400040CCC68BC4044EA0C048460446824EAB0
:1010240002024C68C4F300149C4014434460C26838
:1010340016408A68BA403243C2604A6812F0805F40
:10104400ABD000220192294A546C44F48044546485
:10105400526C02F480420192019A9C08A61C214A17
:1010640052F8267003F0030296000F22B24027EADA
:1010740002071F4A90423FF45CAF02F5806290423F
:101084001ED002F5806290421CD002F5806290422C
:101094001AD002F58062904218D002F58062904224
:1010A40016D002F58062904214D002F5806290421C
:1010B40012D002F5806290423FF439AF092239E739
:1010C400012237E7022235E7032233E7042231E71E
:1010D40005222FE706222DE707222BE702B0F0BCFA
:1010E4007047704700380140003C0140003802401E
:1010F4000000024000230F2B00F28B80F0B509E0C2
:10110400082500E0002505FA02F2A24268D0013366
:101114000F2B7DD801229A4002EA0106B242F6D191
:1011240005685F000324BC40E443254005604FEAA2
:10113400D30C0CF1080C50F82CE003F00705AD00BB
:101144000F2707FA05F52EEA050540F82C508568A7
:1011540025408560456825EA02024260C268144061
:10116400C4604FEA930C0CF102042A4A52F824405A
:1011740003F00302920097403C40274DA842C1D09F
:1011840005F58065A8421DD005F58065A8421BD0F1
:1011940005F58065A84219D005F58065A84217D0E9
:1011A40005F58065A84215D005F58065A84213D0E1
:1011B40005F58065A84211D005F58065A8429FD049
:1011C4000925A0E701259EE702259CE703259AE768
:1011D400042598E7052596E7062594E7072592E771
:1011E4000C4D0CF1020255F8224024EA070745F899
:1011F40022700A4C2568F243154025606568154045
:101204006560A5681540A560E5682A40E2607EE750
:10121400F0BD70470038014000000240003C01402E
:101224000369194201D1002070470120704712B9A7
:101234000904816170478161704743695940416184
:1012440070474FF4807393FAA3F3B3FA83F303F173
:10125400845303F560339B0001221A607047000039
:1012640010B54FF4007292FAA2F2B2FA82F20B4B6A
:1012740013449B0001221A60FFF7B4F90446084B9B
:101284005B6813F0080F07D1FFF7ACF9001BB0F54A
:101294007A7FF4D9032000E0002010BD2080831061
:1012A40000700040002800F0978130B583B00446F8
:1012B400036813F0010F2ED0A34B9B6803F00C03BB
:1012C400042B1FD0A04B9B6803F00C03082B14D0F5
:1012D40022799E4B1A706368002B40D0FFF782F985
:1012E4000546994B1B6813F4003F14D1FFF77AF9B4
:1012F400401B6428F5D9032073E1934B5B6813F416
:10130400800FE5D0904B1B6813F4003F03D0636853
:10131400002B00F06381236813F0020F4BD08A4B3B
:101324009B6813F00C0F2ED0874B9B6803F00C03C3
:10133400082B23D0E368002B64D0854B01221A606C
:10134400FFF750F90546804B1B6813F0020F4AD192
:10135400FFF748F9401B0228F5D9032041E1FFF7C4
:1013640041F90546784B1B6813F4003FD3D0FFF7CF
:1013740039F9401B6428F5D9032032E1724B5B68CC
:1013840013F4800FD6D1704B1B6813F0020F04D0F6
:10139400E368012B01D0012023E16B48036823F0AB
:1013A400F8032169F82292FAA2F2B2FA82F201FA5F
:1013B40002F213430360236813F0080F46D06369F5
:1013C40093B3644B01221A60FFF70CF905465E4B98
:1013D4005B6F13F0020F39D1FFF704F9401B0228A9
:1013E400F5D90320FDE05848036823F0F803216988
:1013F400F82292FAA2F2B2FA82F201FA02F213434A
:101404000360D8E7524B00221A60FFF7EBF8054659
:101414004D4B1B6813F0020FCDD0FFF7E3F8401BD0
:101424000228F5D90320DCE04A4B00221A60FFF7BA
:10143400D9F80546444B5B6F13F0020F06D0FFF753
:10144400D1F8401B0228F5D90320CAE0236813F021
:10145400040F1FD1A369002B00F0C2803A4A92689E
:1014640002F00C02082A00F0BE80022B59D03A4B3D
:1014740000221A60FFF7B6F80446334B1B6813F0DA
:10148400007F00F0A780FFF7ADF8001B6428F4D9B3
:101494000320A6E0002301932B4B1A6C42F08052E8
:1014A4001A641B6C03F080530193019B2B4A13684D
:1014B40043F480731360FFF795F80546274B1B68C8
:1014C40013F4807F06D1FFF78DF8401B0228F5D96D
:1014D400032086E0227A224B1A70A36883B1FFF7B7
:1014E40081F80546184B1B6F13F0020FB2D1FFF7BA
:1014F40079F8401B41F288339842F3D9032070E015
:10150400FFF770F80546104B1B6F13F0020FA1D0C4
:10151400FFF768F8401B41F288339842F3D903205F
:101524005FE00D4B00221A60FFF75CF80546064B9E
:101534001B6813F0007F15D0FFF754F8401B642894
:10154400F5D903204DE000BF0038024002380240C4
:1015540000004742800E474260004742007000404E
:1015640070380240E369226A1343616A47F6C07225
:1015740092FAA2F2B2FA82F201FA02F21343A26AD6
:101584005208013A4FF4403191FAA1F1B1FA81F1D4
:101594008A401343E16A4FF0706292FAA2F2B2FAFF
:1015A40082F201FA02F21343104A5360104B0122F3
:1015B4001A60FFF717F804460C4B1B6813F0007F02
:1015C40006D1FFF70FF8001B6428F5D9032008E0C3
:1015D400002006E0002004E001207047012000E024
:1015E400002003B030BD0120FBE700BF00380240FB
:1015F40060004742324B9B6803F00C03042B5CD021
:10160400082B01D02F4870472DE9F04B2C4B5A681A
:1016140002F03F025B6813F4800F2BD0284B5B6809
:10162400C3F388131E4600275C010025E41A65EB0A
:101634000705A90141EA9461A001001B61EB0501C2
:10164400CB0043EA5073C400A01943EB07014B02DB
:1016540043EAD0534402204619460023FEF7B0FD66
:10166400174B5B68C3F3014301335B00B0FBF3F03A
:10167400BDE8F08B124B5B68C3F388131E4600274A
:101684005C010025E41A65EB0705A90141EA9461B0
:10169400A001001B61EB0501CB0043EA5073C400B9
:1016A400A01943EB07018B0243EA905384022046BE
:1016B40019460023FEF784FDD2E70348704700BFB4
:1016C400003802400024F40000127A00002800F0E0
:1016D400A28070B50446524B1B6803F00F038B4283
:1016E40009D2CBB24E4A1370136803F00F038B4236
:1016F40001D0012070BD236813F0020F17D013F03E
:10170400040F04D0474A936843F4E053936023687A
:1017140013F0080F04D0434A936843F46043936082
:10172400404A936823F0F003A068034393600D4696
:10173400236813F0010F31D06368012B20D0022BF2
:1017440025D0384A126812F0020F66D035498A68EB
:1017540022F0030213438B60FEF744FF0646314B2D
:101764009B6803F00C036268B3EB820F16D0FEF79C
:1017740039FF801B41F288339842F0D90320B9E73E
:10178400284A126812F4003FE0D10120B2E7254A4A
:10179400126812F0007FD9D10120ABE7204B1B68FF
:1017A40003F00F03AB4209D9EAB21D4B1A701B6850
:1017B40003F00F03AB4201D001209BE7236813F031
:1017C400040F06D0174A936823F4E053E1680B43EF
:1017D4009360236813F0080F07D0124A936823F428
:1017E4006043216943EAC1039360FFF703FF0D4B94
:1017F4009B6803F0F003F02292FAA2F2B2FA82F2AA
:10180400D340094AD35CD840084B18600020FEF747
:10181400B1FE00206EE70120704701206AE700BF97
:10182400003C02400038024034D30008100000207D
:10183400014B1868704700BF1000002008B5FFF77F
:10184400F7FF074B9B6803F4E0534FF4E05292FA1E
:10185400A2F2B2FA82F2D340024AD35CD84008BD65
:101864000038024044D3000808B5FFF7E1FF074BF6
:101874009B6803F460434FF4604292FAA2F2B2FA16
:1018840082F2D340024AD35CD84008BD00380240FB
:1018940044D3000830B583B00546036813F0010F44
:1018A40008D1082B06D02B6813F0040F3BD100207D
:1018B40003B030BD504B00221A60FEF793FE04467D
:1018C4004E4B1B6813F0006F06D0FEF78BFE001B17
:1018D4000228F5D90320EBE76B6847F6C07292FA49
:1018E400A2F2B2FA82F29340A9684FF0E04292FA6F
:1018F400A2F2B2FA82F201FA02F213433F4AC2F8A8
:1019040084303D4B01221A60FEF76CFE04463B4BCB
:101914001B6813F0006FC6D1FEF764FE001B02289B
:10192400F5D90320C4E700230193344B1A6C42F029
:1019340080521A641B6C03F080530193019B304A5C
:10194400136843F480731360FEF74CFE04462C4B7B
:101954001B6813F4807F06D1FEF744FE001B0228A7
:10196400F5D90320A4E7254B1B6F13F4407312D061
:10197400EA6802F440729A420DD0204B1A6F22F4A6
:101984004072204901200860002008601A671B6F1C
:1019940013F0010F13D1EB6803F44072B2F5407FEA
:1019A4001ED0164A936823F4F813936013490B6FFF
:1019B400EA68C2F30B0213430B67002078E7FEF7D3
:1019C40011FE04460D4B1B6F13F0020FE3D1FEF71B
:1019D40009FE001B41F288339842F3D9032067E7DC
:1019E40006498A6822F4F81223F0704323F4407302
:1019F40013438B60DAE700BF6800474200380240B7
:101A040000700040400E474238B504460268D3686F
:101A140023F0A003D360FEF7E5FD05462368DB68E9
:101A240013F0200F07D1FEF7DDFD401BB0F57A7FE0
:101A3400F4D9032000E0002038BD38B50368DA6823
:101A440012F0400F01D0002038BD04464FF0FF32A1
:101A5400DA60FEF7C7FD05462368DB6813F0400F24
:101A640007D1FEF7BFFD401BB0F57A7FF4D9032000
:101A7400EAE70020E8E7002855D010B50446437F84
:101A84009BB1022363772368CA225A6223685322D4
:101A94005A622046FFF7D1FF58B12368FF225A62E9
:101AA400042363770123184610BD037708F09AFED8
:101AB400E7E72268936823F4E00323F0400393608C
:101AC40021688A6863682069034360690343134398
:101AD4008B602368E2681A6122681369A16843EA8B
:101AE400014313612268D36823F08003D360204646
:101AF400FFF78AFF034678B921680A6C22F4802232
:101B04000A6421680A6CA06902430A642268FF21FE
:101B1400516201226277C6E72368FF225A620423D6
:101B240063770123BFE7012318467047002302E0CF
:101B340001330A38C0B20928FAD81B01DBB21843B2
:101B44007047037F012B60D070B501230377022314
:101B540043773AB94B7813F0100F03D003F0EF0337
:101B64000A334B700E4604461ABBC878FFF7DEFFF3
:101B740005047078FFF7DAFF45EA0025B078FFF72F
:101B8400D5FF2843357840EA45352368CA225A628E
:101B9400236853225A622046FFF74FFFA0B12368FF
:101BA400FF225A6204236377002323770123184614
:101BB40070BDCD784878000240EA05408D7828430E
:101BC4000D7840EA4535E0E7236825F07F4525F0A8
:101BD400C0055D602268D36823F08003D36020468B
:101BE400FFF712FF034638B92268FF215162012230
:101BF400627700222277DAE72368FF225A620423FD
:101C04006377002323770123D1E702231846704723
:101C1400037F012B71D070B50E4604460123037770
:101C24000223437752BB03689B6813F0400F01D132
:101C34000023CB703078FFF779FF05047078FFF745
:101C440075FF45EA0025B078FFF770FF2843F57863
:101C540040EA05452368CA225A62236853225A621D
:101C64002046FFF7EAFED8B12368FF225A62042314
:101C74006377002323770123184670BD03689B68AC
:101C840013F0400F01D10023CB7035787078000237
:101C940040EA0540B5782843F57840EA0545D9E798
:101CA400236805F07F3525F0FE451D6022689368A2
:101CB40023F48023936021688B687268B0680243C0
:101CC40013438B602268D36823F08003D3602046DB
:101CD400FFF79AFE034638B92268FF2151620122B8
:101CE400627700222277C7E72368FF225A6204231F
:101CF4006377002323770123BEE702231846704746
:101D0400030903EB83035A0000F00F001044C0B230
:101D1400704770B503681B6803F07F3323F0FE43FC
:101D24001D0C05F03F000870C3F306264E7003F047
:101D34007F048C7005F04005CD705AB90D46FFF74D
:101D4400DFFF28703046FFF7DBFF68702046FFF79F
:101D5400D7FFA870002070BD70B503685B6823F0DE
:101D64007F4323F0C003180CC870C3F304264E70DD
:101D740003F03F058D70C3F342330B705AB90C4620
:101D8400FFF7BEFFE0703046FFF7BAFF60702846E9
:101D9400FFF7B6FFA070002070BDF8B505460F46EA
:101DA40016461C463BE02CB1FEF71CFC069BC01AF1
:101DB400A04234D32A68536823F0E00353606B686D
:101DC400B3F5827F0BD0AB6AB3F5005F14D0012367
:101DD40085F85130002385F85030032027E0AB68A4
:101DE400B3F5004F02D0B3F5806FECD12A681368C5
:101DF40023F040031360E6E72A68136823F40053D2
:101E04001B041B0C13602A68136843F4005313600B
:101E1400DDE70123B34209D0B4F1FF3FC3D12B68FE
:101E24009B6837EA0303F4D00023F3E70020F8BDEE
:101E340010B582B0044600920B4600228021FFF7C1
:101E4400ACFF034610B9184602B010BD636D43F0F1
:101E5400200363650323F6E700283BD010B504464E
:101E64000023836290F85130002B2ED0022384F893
:101E740051302268136823F0400313606368A2683A
:101E84001343E26813432269134362691343A2694B
:101E940002F400721343E2691343226A1343A16AF2
:101EA40022680B431360638B03F00403616A2268A6
:101EB4000B4353602268D36923F40063D361002089
:101EC4006065012384F8513010BD80F8503008F06B
:101ED40097FDCBE7012070472DE9F04184B01E4601
:101EE40090F85030012B00F0C88004460D4690460F
:101EF400012380F85030FEF775FB074694F8513003
:101F0400DBB2012B0AD00223012284F851200022E3
:101F140084F85020184604B0BDE8F081002D00F08C
:101F2400A480B8F1000F00F0A280032384F851309C
:101F3400002363652563A4F83480A4F83680A36382
:101F4400A387E38763642364A368B3F5004F1BD0BE
:101F540023681A6812F0400F03D11A6842F0400255
:101F64001A60E368B3F5006F14D063681BB1E38EA5
:101F74009BB2012B3ED1236815F8012B1A73E38E13
:101F8400013B9BB2E38635E02268136843F4804347
:101F94001360DDE763681BB1E38E9BB2012B0DD1A7
:101FA400236835F8022BDA60E38E013B9BB2E386AB
:101FB40004E0002E5DD0B6F1FF3F0FD1E38E9BB25B
:101FC4007BB323689A6812F0020FF2D035F8022B23
:101FD400DA60E38E013B9BB2E386EFE7FEF702FB98
:101FE400C01BB042EAD303238EE7002E43D0B6F1E0
:101FF400FF3F0FD1E38E9BB29BB123689A6812F026
:10200400020FF2D015F8012B1A73E38E013B9BB239
:10201400E386EFE7FEF7E6FAC01BB042EAD30323F8
:1020240072E700973346012202212046FFF7B5FEEE
:1020340008B1032368E73A4631462046FFF7F8FE25
:10204400034618B12023636501235DE7A26832B912
:1020540003922268D168039192680392039A626D95
:10206400002A3FF451AF01234EE701234CE701233B
:102074004AE7032348E7032346E702234AE72DE917
:10208400F04385B099460C9D90F85030012B00F038
:10209400108104460F461646012380F85030FEF79F
:1020A400A1FA804694F85130DBB26268012B15D056
:1020B400B2F5827F0AD00223012284F85120002243
:1020C40084F85020184605B0BDE8F083A268002AC1
:1020D40040F0E780042B01D00223EDE7002F00F04D
:1020E400E280002E00F0E180B9F1000F00F0DF8003
:1020F40094F85130DBB2012B2BD000236365A66327
:10210400A4F83E90A4F83C902763A4F83690A4F871
:1021140034902364636423681A6812F0400F03D177
:102124001A6842F040021A60E368B3F5006F14D0F5
:1021340063681BB1E38E9BB2012B07D1236817F8A8
:10214400012B1A73E38E013B9BB2E3864FF0010926
:1021540061E0052384F85130CFE763681BB1E38E57
:102164009BB2012B07D1236837F8022BDA60E38E88
:10217400013B9BB2E3864FF0010913E0E38F9BB26E
:102184006BB123689A6812F0010F08D0DB6826F857
:10219400023BE38F013B9BB2E3874FF00109B5F1AA
:1021A400FF3F1CD1E38E9BB21BB9E38F9BB2002B84
:1021B40055D0B9F1000FE1D0E38E9BB2002BDDD0F6
:1021C40023689A6812F0020FD8D037F8022BDA602D
:1021D400E38E013B9BB2E3864FF00009CEE7FEF7A6
:1021E40001FAA0EB0800A842DCD3032364E7E38FE1
:1021F4009BB26BB123689A6812F0010F08D0DB68B8
:102204003370E38F013B9BB2E38701364FF0010942
:10221400B5F1FF3F1BD1E38E9BB213B9E38F9BB2A1
:10222400EBB1B9F1000FE2D0E38E9BB2002BDED00C
:1022340023689A6812F0020FD9D03A781A73E38EA1
:10224400013B9BB2E38601374FF00009CFE7FEF76D
:10225400C9F9A0EB0800A842DDD303232CE7CDF88D
:1022640000802B46012202212046FFF796FD08B18B
:10227400032321E7424629462046FFF7D9FD0346BA
:1022840018B120236365012316E7A268002A7FF4AE
:1022940013AF03922268D168039192680392039A60
:1022A4000AE7022308E7012306E7012304E70123E1
:1022B40002E7022306E710B4036A046A24F0010467
:1022C4000462846924F0F00444EA021223F00A034D
:1022D4000B438261036210BC704710B4036A23F09D
:1022E400100303628469036A24F4704444EA0232EA
:1022F40023F0A00343EA01138261036210BC704718
:10230400836823F0700341F007011943816070472B
:1023140010B4846824F47F4442EA03230B43234328
:10232400836010BC70470268D36843F00103D36034
:102334000268136843F0010313600020704790F8AB
:102344003C30012B7DD010B50446012380F83C308D
:10235400022380F83D300268936823F47F4323F01E
:10236400770393600B68402B57D010D9702B3ED065
:102374001FD8502B47D0602B32D1CA6849680068F7
:10238400FFF7ABFF60212068FFF7BAFF28E0102BAE
:102394004DD008D9202B4FD0302B21D130210068CB
:1023A400FFF7AEFF1CE0DBB900210068FFF7A8FFD0
:1023B40016E0B3F5805F0ED0B3F5005F10D1CB68A3
:1023C4004A6889680068FFF7A3FF2268936843F4AA
:1023D4008043936004E00268936823F007039360EA
:1023E400012384F83D30002084F83C0010BDCB6804
:1023F4004A6889680068FFF78BFF2268936843F096
:1024040077039360ECE7CA6849680068FFF753FFF5
:1024140050212068FFF774FFE2E7CA684968006842
:10242400FFF749FF40212068FFF76AFFD8E7102132
:102434000068FFF765FFD3E720210068FFF760FF1E
:10244400CEE702207047704770477047704710B559
:10245400044603681A6912F0020F11D0DA6812F008
:10246400020F0DD06FF002021A6101230377036893
:102474009B6913F0030F70D0FFF7E6FF0023237767
:1024840023681A6912F0040F12D0DA6812F0040FEC
:102494000ED06FF004021A610223237723689B692C
:1024A40013F4407F5FD02046FFF7CEFF002323774D
:1024B40023681A6912F0080F12D0DA6812F0080FB4
:1024C4000ED06FF008021A61042323772368DB69B6
:1024D40013F0030F4ED02046FFF7B6FF00232377F7
:1024E40023681A6912F0100F12D0DA6812F0100F74
:1024F4000ED06FF010021A61082323772368DB697A
:1025040013F4407F3DD02046FFF79EFF002323773E
:1025140023681A6912F0010F03D0DA6812F0010F70
:1025240036D123681A6912F0800F03D0DA6812F0EA
:10253400800F34D123681A6912F0400F03D0DA688F
:1025440012F0400F32D123681A6912F0200F03D021
:10255400DA6812F0200F30D110BDFFF774FF204667
:10256400FFF773FF8AE72046FFF76DFF2046FFF76A
:102574006CFF9BE72046FFF766FF2046FFF765FFE9
:10258400ACE72046FFF75FFF2046FFF75EFFBDE79D
:102594006FF001021A61204607F00CFBC1E76FF0EF
:1025A40080021A61204600F0B6F8C3E76FF04002DB
:1025B4001A612046FFF74AFFC5E76FF020021A614F
:1025C400204600F0A7F8C7E70368304A904212D0CB
:1025D400B0F1804F0FD0A2F57C4290420BD002F5AF
:1025E4008062904207D002F58062904203D002F5E7
:1025F4007842904203D123F070034A681343234A7C
:1026040090422AD0B0F1804F27D0A2F57C4290426C
:1026140023D002F5806290421FD002F5806290427E
:102624001BD002F57842904217D002F570529042C6
:1026340013D002F5806290420FD002F5806290427E
:102644000BD0A2F59832904207D002F580629042F6
:1026540003D002F58062904203D123F44073CA6828
:10266400134323F080034A69134303608B68C362F6
:102674000B688362054B984203D003F5806398424C
:1026840001D10B69036301234361704700000140DA
:10269400A8B110B5044690F83D305BB1022384F82C
:1026A4003D30211D2068FFF78FFF012384F83D3062
:1026B400002010BD80F83C3008F0AEFAEEE70120AF
:1026C400704790F83C30012B22D030B4012280F8BE
:1026D4003C20022380F83D300468636823F07003D3
:1026E4006360046863680D682B4363600468A368CF
:1026F40023F08003A3600468A36849680B43A360C4
:1027040080F83D20002380F83C30184630BC7047E8
:1027140002207047704770472DE9F843044601686A
:102724000A6922F44052C36813430B610168CA6802
:1027340022F4164222F00C028368006903436069A4
:102744000343E06903431343CB6021684A6922F4DD
:102754004072A36913434B61E369B3F5004F60D042
:102764002368B84A934200F0148102F580629342D0
:1027740000F00F81FFF762F800EB800000EB8000AF
:102784006568AD00B0FBF5F5AF4FA7FB05356D09E6
:102794002E01FFF753F800EB800000EB8000656822
:1027A400AD00B0FBF5F9FFF749F800EB800000EB52
:1027B40080006568AD00B0FBF5F5A7FB05356D0934
:1027C4004FF0640808FB15952D013235A7FB05353C
:1027D4006D0905F0F0053544FFF730F800EB800093
:1027E40000EB80006668B600B0FBF6F6FFF726F84B
:1027F40000EB800000EB800063689B00B0FBF3F00B
:10280400A7FB0030400908FB10684FEA081808F1DC
:102814003208A7FB0837C7F3431723682F449F6088
:102824000DE12368874A93425BD002F580629342AC
:1028340057D0FFF703F800EB800000EB80006568D9
:102844006D00B0FBF5F5804FA7FB05356D092E0132
:10285400FEF7F4FF00EB800000EB800065686D007C
:10286400B0FBF5F9FEF7EAFF00EB800000EB800017
:1028740065686D00B0FBF5F5A7FB05356D094FF0F4
:10288400640808FB1595ED003235A7FB05356D0985
:102894006D0005F4F8753544FEF7D0FF00EB8000B9
:1028A40000EB800066687600B0FBF6F6FEF7C6FF24
:1028B40000EB800000EB800063685B00B0FBF3F387
:1028C400A7FB03235B0908FB13684FEAC80808F158
:1028D4003208A7FB0837C7F3421723682F449F60C9
:1028E400ADE0FEF7C1FF00EB800000EB80006568FF
:1028F4006D00B0FBF5F5544FA7FB05356D092E01AE
:10290400FEF7B2FF00EB800000EB800065686D000D
:10291400B0FBF5F9FEF7A8FF00EB800000EB8000A8
:1029240065686D00B0FBF5F5A7FB05356D094FF043
:10293400640808FB1595ED003235A7FB05356D09D4
:102944006D0005F4F8753544FEF78EFF00EB80004A
:1029540000EB800066687600B0FBF6F6FEF784FFB5
:1029640000EB800000EB800063685B00B0FBF3F3D6
:10297400A7FB03235B0908FB13684FEAC80808F1A7
:102984003208A7FB0837C7F3421723682F449F6018
:1029940055E0FEF769FF00EB800000EB80006568FE
:1029A400AD00B0FBF5F5284FA7FB05356D092E01E9
:1029B400FEF75AFF00EB800000EB80006568AD0075
:1029C400B0FBF5F9FEF750FF00EB800000EB800050
:1029D4006568AD00B0FBF5F5A7FB05356D094FF053
:1029E400640808FB15952D013235A7FB05356D09E3
:1029F40005F0F0053544FEF737FF00EB800000EBEF
:102A040080006668B600B0FBF6F6FEF72DFF00EB1B
:102A1400800000EB800063689B00B0FBF3F0A7FB31
:102A24000030400908FB10684FEA081808F1320822
:102A3400A7FB0837C7F3431723682F449F60BDE8FB
:102A4400F88300BF001001401F85EB512DE9F041D0
:102A540005460F4616469846069C2B681B6837EABF
:102A640003030CBF01230023B3421DD1B4F1FF3F84
:102A7400F3D02CB1FDF7B6FDA0EB0800A042ECD9D1
:102A84002A68D36823F4D073D3602A68536923F087
:102A940001035361202385F8393085F83A30002347
:102AA40085F83830032000E00020BDE8F08158B3F9
:102AB40010B5044690F839300BB3242384F8393028
:102AC4002268D36823F40053D3602046FFF724FE22
:102AD4002268136923F4904313612268536923F035
:102AE4002A0353612268D36843F40053D36000205F
:102AF400E063202384F8393084F83A3010BD80F83C
:102B0400383008F005F9D8E7012070472DE9F04185
:102B140082B01E4690F83930DBB2202B55D10446E2
:102B24000D469046002955D0002A55D090F83830EB
:102B3400012B53D0012380F838300023C3632123B1
:102B440080F83930FDF74EFD0746A4F82480A4F838
:102B5400268010E000963B46002280212046FFF7A5
:102B640075FF00283CD12B882268C3F30803536007
:102B74002369C3B90235E38C9BB2B3B1E38C013B47
:102B84009BB2E384A368B3F5805FE3D000963B4631
:102B9400002280212046FFF759FF18BB2A782368BA
:102BA4005A600135E7E70135E5E700963B46002228
:102BB40040212046FFF74AFF0346A8B9202284F8A3
:102BC4003920002284F8382000E00223184602B09D
:102BD400BDE8F0810123F9E70123F7E70223F5E7D4
:102BE4000323F3E70323F1E70323EFE788B110B5E9
:102BF400044608F0DFF8E368226843F080031360BA
:102C0400236962681343A16822680B435360002060
:102C140010BD012070470368C2681A600020704725
:102C240010B5084C00220849206803F09BFC226878
:102C3400530047F230518B4202D89A4200D22360AB
:102C440010BD00BFA0000020B52D000808B5006825
:102C540000F00FF9034A02440023034807F0D0FDB3
:102C640008BD00BF8081557CD469002030B583B095
:102C740014460021304803F01DFD00212F4803F0C5
:102C840019FD2389302B11D06FF00F05204600F079
:102C9400CDFBDDB315F1030F3ED0294B1B79DBBB14
:102CA400012D45D00020FFF7BBFF35E000230122B2
:102CB4000DF10701204600F030FD9DF8073003F0C8
:102CC40007038DF807301E4A12790AB9042B09D07C
:102CD400012A02D06FF00205D8E7052B02D06FF06D
:102CE4000205D3E701231A460DF10601204600F040
:102CF40014FD9DF806300BB90125C7E728230422EB
:102D04006946204600F009FD0025BFE76846FFF745
:102D14009DFF0B4B1B790BB103B030BD084B40F644
:102D2400B8321A6000220549064803F01BFCF3E799
:102D34000020FFF775FFEFE7252C0008B52D0008EC
:102D4400A000002080EE360010B504463022002199
:102D540009F08CF82323237010BD000038B5054614
:102D640000223021104600F08DFBA0B104464068DB
:102D7400FFF7EAFF7B232A4621460A48806803F0CE
:102D84007FFE204600F052FB0022074940F6B8308F
:102D940003F0E8FB38BD0022044940F6B83003F0E4
:102DA400E1FBF7E7A0000020252C0008B52D000862
:102DB40000B583B0084BDB6801932BB101A8FFF782
:102DC400CDFF03B05DF804FB0022044940F6B8309F
:102DD40003F0C8FBF5E700BFA0000020252C000885
:102DE40008B5134B9B6803B108BD2E2003F0C4FE45
:102DF4000F4B98600028F7D000220E4903F08EFE96
:102E04000B4B1B7963B1012BEED1094B9868037A04
:102E140043F0200303727B22074903F07BFDE3E7C1
:102E2400034B40F6B8321A600020FFF7C1FFDBE71E
:102E3400A0000020712C000804D30008014B187175
:102E4400704700BFA000002058B929B1054A02EB21
:102E540080030A68DA607047024A02EB80030022AA
:102E6400DA607047A0000020030A43EA002080B221
:102E74007047030203F47F0343EA0063020A02F487
:102E84007F42134343EA1060704708B500F03CF8F2
:102E940000F050F900F08BF903F0ACFC00F0BAFC40
:102EA40003F0E2FB08BD000030B4164A136855680D
:102EB40001885A1890420DD014795CB9954209D012
:102EC400104CA468944217D05A5A0280C41A5A5A11
:102ED4001A44548041885A1890420BD014794CB942
:102EE400084CA46884420AD004885C52D21A01882F
:102EF4000B445A8030BC7047024A9060E4E7014CAE
:102F0400A260F1E7B000002010B40A4B23F00303E1
:102F1400094A13604FF4C860188000215980197160
:102F24001918516001240C71A3F84006488093607D
:102F340010BC7047D7020020B0000020B0B108B523
:102F440003460B4A126882420FD8094A52688242E9
:102F54000BD90838002203F8042C054B9B688342E4
:102F640001D9034B9860FFF79FFF08BD704700BF6E
:102F7400B0000020033189B221F0030189B20B298A
:102F840004D9B1F5C86F02D9002070470C212A4B2F
:102F94001A6882424FD85B6883424CD9F0B4A0F1DE
:102FA40008039B1A9CB230F8085C2B1B9BB2083BAD
:102FB4009BB299423DD818D056193779DFB9555B81
:102FC400214489B2083189B21B4B9B68B3420ED0AD
:102FD400531800261E7155525C8020F8081C535A61
:102FE400B3F5C86F01D01A445180F0BC7047531830
:102FF400114EB360ECE701F114059D42F5D80B19AD
:103004009BB208339BB2D1180B4DAD688D4201D9E8
:10301400094DA96000250D7130F8085CD5524C802B
:1030240020F8083CD15AB1F5C86FDED00A44538069
:10303400DBE70020D9E77047B0000020002852D019
:103044000246033292B222F0030292B20B2A04D94E
:10305400B2F5C86F02D9002070470C22F0B4234B9C
:103064001D689B685B1B9BB215E0012303711F4B1A
:103074009B68834205D0083033E01C4A12681B88E1
:1030840013441A791AB1194A52689A42F5D1174A67
:103094009360F0E703881F461646C2F5C860834272
:1030A4001ED2E8180479002CF4D1E95AC91B083956
:1030B400B142EFD31436B142D7D31A4492B2083294
:1030C40092B2A9180C710488AC524B80028001237F
:1030D4000371AB5AB3F5C86FC9D01D446A80C6E703
:1030E4000020F0BC70470020704700BFB0000020F3
:1030F400C368186810B102681A60704700207047EE
:10310400C3681B680B60C36819607047C3680022FA
:103114001A608368033323F0030307E0C168096876
:103124001960C1680B6081880B440132C1889142E7
:10313400F4DC704710B5002406E0054B53F8240076
:10314400FFF7E4FF0134A4B2082CF6D910BD00BF88
:10315400CCD10008082806D808B5044B53F8200041
:10316400FFF7C6FF08BD0020704700BFCCD10008A0
:10317400082807D831B108B5034B53F82000FFF7EE
:10318400BFFF08BD704700BFCCD1000811F0010F8C
:103194000CD008B5436823B190F82F3013F0080F12
:1031A40000D108BD011D04F07FFFFAE770477047A6
:1031B40070B582B00D46C1B10A68019242680199A6
:1031C400914210D00446061D01A9304601F0F8F8DA
:1031D40001A9304603F0D4FC5DB12B686360012182
:1031E4002046FFF7D3FF02B070BD034A1268019274
:1031F400E4E70023F2E700BF04D3000811B10B6831
:10320400C36070470023FBE711B10B68836070470C
:103214000023FBE7F8B5044617461E460D4609B1E0
:103224000B6863B929462046FFF7C2FF394620469A
:10323400FFF7EAFF31462046FFF7E0FFF8BD1146ED
:10324400FFF7E2FF31462046FFF7D8FF2946204624
:10325400FFF7AEFFF2E70000F8B50446002545602D
:103264008560C56080F82F500562032580F82450DE
:10327400069DC5610A4E35786F1C377080F8325050
:10328400089D0561FFF7C6FF2046079B984728B9AC
:10329400044B1A6822601C602046F8BD0020FCE73D
:1032A400E00000203C380020014B1860704700BF4C
:1032B4004038002008B590F82F3013F0010F06D1E4
:1032C40043F0010380F82F3013F0040F00D108BD40
:1032D4000321FFF75BFFFAE708B590F82F3013F0EE
:1032E400010F06D003F0FE0380F82F3013F0080F0F
:1032F40000D108BD04F050FEFBE70000014B0122A1
:103304001A70704744380020002939D00B46002831
:1033140038D030B400290BDB8CB2017B456871B125
:1033240003290CD0013989B201291BD9012014E0E9
:103334004C42A4B24189A142EFD201200DE0EA1A25
:10334400426000F110018A4209D39BB242891A44B7
:103354004281028913440381002030BC70474560D8
:103364000120FAE7002B05DB002B0DDD72B1ED1A0D
:103374004560EAE74189A142F6D3ED1A4560E4E7E6
:1033840000207047002070470120E6E70120E4E7B1
:1033940010B5074B00221A70064B1C683CB1206F15
:1033A40008B9E468FAE700F096FA0023236710BD31
:1033B400443800204C38002070B4039C042827D8DB
:1033C400DFE800F0030B05070900362006E00E20B5
:1033D40004E0002002E0002000E02220033020F07E
:1033E40003000E18BDF81050AE4213D800251D601E
:1033F4005CB12044586002205873198159811A73B2
:103404000122DA81184670BC704700205860F2E748
:103414000020F8E70020F6E708B50022FFF774FF64
:1034240008BD08B50122FFF76FFF08BD38B530B3FA
:10343400014600240BE0032A19D0013A92B2012A72
:1034440019D90846FFF77AFD0134E4B22946B9B127
:10345400CB89013B9BB2CB8193B90D680A7B4B7B33
:1034640013F0020FE7D00B6908469847ECE70820F1
:10347400FFF77EFEE8E70720FFF77AFEE4E7002483
:10348400204638BD2DE9F041042800F28B80DFE8A6
:1034940000F0030B05070900362406E00E2404E0BF
:1034A400002402E0002400E0222417460D46032AEB
:1034B4007AD8DFE802F0486A6A020820FFF74AFE79
:1034C4000646002835D007730023036004F1100377
:1034D4000344033323F0030343600581E11C21F01B
:1034E4000301C1F51471A94228BF294689B241815B
:1034F4000123C3816D1A8046002D3FDD0820FFF7AC
:1035040029FE0446C0B10773002343730360C8F85F
:103514000000ABB20381B3F5147F28BF4FF41473DA
:10352400438100F1100242600122C281ED1A8046FB
:10353400E2E7FFF7E3FE25E0FFF7E0FE3046FFF7A2
:1035440075FF26461EE004F1130020F0030083B249
:10355400C81C80B220F00300184480B2FFF76EFD4F
:10356400064678B104F110030344033323F0030344
:103574004360058145810023036007730123F381C0
:10358400002373733046BDE8F0810720FFF7E2FDA6
:1035940006460028F6D00023436005814581036078
:1035A4000773EBE70026EDE70026EBE738B50446A2
:1035B400008988421CD90D4607E0EB1A9DB20B1A0C
:1035C4009BB222891344238124686389AB42F4D3D8
:1035D400227B2AB9AB4203D0637B13F0020F08D0DD
:1035E40065812581206808B1FFF720FF002323604F
:1035F40038BD6368191B89B2294489B22046FFF794
:10360400B9FC0446ECE7002302E001339BB20068F6
:103614000028FAD11846704710B1C3890133C38119
:10362400704798B1034609B110B405E070470A89A0
:103634001C8922441A81034618680028F7D11A8984
:10364400088902441A81196010BC7047704710B58C
:103654000C46FFF7E6FF2046FFF7DEFF10BD00280B
:103664004FD02DE9F0410E46074600294CD002897F
:103674000B899A424BD34FF00008454610E05B1B80
:103684009CB215E03F680FB1002526E0002E41D121
:10369400002522E033682BB36FF005002FE06EB3F2
:1036A4007B89591B7489A4EB08029142E7DB94B22D
:1036B4007868716822464144284408F0CCFB2544CC
:1036C400ADB244441FFA84F87B897289424502D81A
:1036D40036684FF00008AB42D4D01EB172893389EA
:1036E4009A42D7D0002FDAD07A893B899A42D6D130
:1036F4003B68002BD3D06FF0050000E00020BDE84C
:10370400F0816FF00F0070476FF00F00F7E76FF074
:103714000F00F4E76FF00F00F1E72DE9F04128B353
:103724000F469046054629B3002613E06A89D21A4B
:1037340094B2A04500D24446696822461944B81997
:1037440008F089FB2644B6B2A8EB04041FFA84F8F7
:1037540000232D68B8F1000F09D045B1002BE5D046
:1037640069899942E2D85B1A9BB2F2E70026304697
:10377400BDE8F0810026FAE700E0C06828B1836F55
:103784008B42FAD100238367F7E7704738B50546C3
:10379400012407E0054B53F8243029461868FFF745
:1037A400EBFF0134032CF5D938BD00BF80D20008EB
:1037B40010B4002409E0154B4FF440421A800CE089
:1037C4000134A4B2B4F5804F1DD2104A1388591C99
:1037D40011804FF6FF729342EDD0002003280ED8DB
:1037E4000B4B53F820301B6833B1D98A074A12882F
:1037F4009142E5D0DB68F7E70130C0B2EEE7034B56
:10380400188810BC70470020FBE700BF00000020B0
:1038140080D20008704730B4456A048D2A19C16A01
:10382400438EB3F5866F94BFCB1801F58663D31A24
:10383400002B03DB4485501A30BC70476B1A002BF5
:1038440003DD002242851046F6E7491B418500202E
:10385400F2E7000038B504460D46027D038D0B44A3
:103864009BB20385B3F5066F11D94FF40663038544
:103874002046FFF7D0FFB0F5067F12DA228DC2F59D
:1038840006639BB229460B4808F0F8FA38BD002BB2
:10389400EED1072A01D0092AEAD14FF40663238521
:1038A400E6E7A37E43F00203A376204602F084FBFE
:1038B400E4E700BFE4D3000860B110B504464068F3
:1038C40018B1FFF7B3FD0023636021460320FFF71F
:1038D4004FFC10BD704738B110B50468FFF7ECFF1A
:1038E4002046002CF9D110BD704738B50546032099
:1038F400FFF730FC044660B12B686868A968EA6881
:1039040023606060A160E2602B6923616068FFF757
:1039140083FE204638BD00B10161704708B1C0F88C
:103924008010704700B1C167704708B1C0F88C10AF
:103934007047C0F8881002777047000038B5037DDF
:10394400002B32D00A2B30D0012B2ED0044617483E
:1039540008F01CFB636F3BB1154808F017FB606F60
:10396400FFF764FD00236367A36E13B1114808F0E9
:103974000DFBE36E13B1104808F008FB236F13B17D
:103984000E4808F003FB206FFFF7A5FF002525670D
:103994004FF6FF732386A06EFFF79DFFE06EFFF7DF
:1039A4009AFFA566E566A4F8645038BD14D40008EF
:1039B40024D4000850D4000874D400089CD400080F
:1039C4002DE9F04182B0B34A136801331360B24A5F
:1039D400137801331370B14B1C680CB10026DDE081
:1039E400AF4808F0D3FAF9E7E568D6E094F8423036
:1039F400062B40F0E480AB4808F0C8FA0125F9E052
:103A0400A94808F0C3FA0125F4E0204602F006FDB7
:103A1400002844D1002384F8943094F89530062B80
:103A24003FD8013384F895300025E3E0B4F9302021
:103A3400002A01DB01322286E26E002A00F0DA80DD
:103A4400B4F93000B4F940209042C0F2D380022986
:103A54000CD0B4F93C10B4F93E2002EBE1029349D6
:103A64000B441B7E02FA03F3A4F8403000232386A0
:103A7400B4F85C30B4F84820934228BF13465B087E
:103A8400A4F84A30618E4A0092B2934201D2A4F85B
:103A94004A20A4F84810204602F0E2FBAAE00025E0
:103AA400A8E00025A6E0A37E13F0100F00F0A68086
:103AB400226A784B1B689B1A282B40F29F800135A1
:103AC400EDB27B4808F062FA98E0724B1A68236AF8
:103AD400D21AD4F8901001F5242303F6B84375489C
:103AE400A0FB0303B2EB531F0CD894F89630724832
:103AF40000FB03136F49A1FB0313B2EB531F20D840
:103B040000272BE06D4808F0B9F9201D11D0217968
:103B140088B1627988B1A37988B1E0790090684866
:103B240008F0ACF90A2008F0C1F90135EDB201271B
:103B340014E00021ECE70022ECE70023ECE700208E
:103B4400ECE7204602F002FC002864D194F8963099
:103B5400013384F89630002700E00027206F50B12D
:103B64004C4B1A68236AD21AB4F9403003EB43036E
:103B740059008A4251D2237D032B53D0237D092B34
:103B84005CD0002D66D1E568E37E0133DBB2E376D9
:103B9400227F934280F0AD8026462C46002C00F014
:103BA400C480484808F0F2F9217D627F3A4B1B78C3
:103BB4009A423FF419AF637702293FF417AF94F8A0
:103BC40042300C2B3FF41CAF94F89550002D3FF479
:103BD4002DAF013D354B1D442A7C94F8943093421B
:103BE40002D2013384F8943094F894309342BFF4B1
:103BF4000CAF0025237D062B3FF455AF237A13F039
:103C0400080FAAD0237D042B3FF45FAF072B3FF4AA
:103C14005CAF0027A2E70027A0E7FFF75CFE0023C4
:103C24002367A8E7226A1B4B1B689B1A282BA5D97C
:103C34000135EDB2244808F0A9F99FE7226A154B33
:103C44001B689B1AF02B9CD90135EDB21F4808F074
:103C54009DF996E7D4F88C802046FFF76FFE002E7E
:103C640038D0E368F360002F38D12769E56821462E
:103C74000120FFF77DFA164B00221A70B8F1000FED
:103C840003D06FF00C013846C047114B1B78002B52
:103C940083D0A0E650380020E10000204C380020FA
:103CA400C0D4000800D5000828D5000880D2000838
:103CB40050D50008D34D6210F824010080D50008C7
:103CC400B8D50008DCD40008C8D50008F4D500082D
:103CD40048380020E268254B1A60C4E7616AE06C4A
:103CE400238B0193E38A0093231D224602F06EFA8C
:103CF400BBE70026E6761E4808F048F91D4B1E7007
:103D0400D4F8883053B1214620699847194B1B7861
:103D1400002B7FF460AE18B126463EE70020F5E79D
:103D2400204602F049F9264637E7134B1D680BE09D
:103D34002846FFF703FE8CB1EB68E360EE68294682
:103D44000120FFF715FA354665B12A6A0B4B1B684B
:103D54009B1AF02BECD82C46ED68F5E7EA68064B85
:103D64001A60EBE702B0BDE8F08100BF4C380020D8
:103D740020D60008483800205C3800205038002045
:103D8400034B5868034A126810445860704700BFD8
:103D9400000000205038002010B50446084604F006
:103DA40023FC30B1C38C23B1283B9BB29C4228BF77
:103DB4001C46204610BD0000F8B500286CD004460F
:103DC40000296CD0007D00286CD11F4616460D4694
:103DD40011463A4808F052F82B68636026830CB108
:103DE400236863B9201D04F0FFFB024600283DD080
:103DF400031D002A59D0002B5AD01B682360E68A81
:103E040026B9FFF7D5FCE082002854D0FFF7B8FFAD
:103E140000236362E06401386064A0654FF40665C2
:103E240065852585E362A4F85C504FF406706086CE
:103E3400211DFFF7B1FF60860123A4F84830A4F8E0
:103E44004A50C4F884700221204602F000F8054666
:103E540000BB022323758EB1194B1B68A34207D004
:103E640063B1DA68A24207D01346F9E70023C0E73A
:103E7400DA68134B1A6001E0E268DA60114B1A68E1
:103E8400E2601C6002F0B6FB0F4B01221A70204660
:103E940002F092F82846F8BD6FF00505FAE76FF0D6
:103EA4000505F7E76FF00905F4E76FF00305F1E79F
:103EB4006FF00305EEE76FF00105EBE744D6000869
:103EC400583800204C3800204838002008B5044BEE
:103ED40003EB8000816A034807F0D0FF08BD00BFF0
:103EE40080D2000860D60008064B1B6800E0DB683F
:103EF400002BFCD1044B1B6800E0DB68002BFCD1D9
:103F0400012070474C3800205C38002010B50C4666
:103F140003688B4205D04BB1DA68A24204D0134641
:103F2400F9E7DB68036001E0E268DA600023E3603C
:103F34002046FFF703FD237D0A2B05D0012B03D078
:103F4400A37E13F0010F05D100232375E382FFF74D
:103F5400CBFF10BD43F00203A376204602F02CF8F9
:103F6400F2E7000030B583B0044621B1037D042B91
:103F74000BD0072B09D0237D072B00F29F80DFE8AD
:103F840003F048626F7B879D9D90636FB3B1238B71
:103F94000193E38A0093231D2246616AE06C02F0D8
:103FA40015F92046FFF7CAFC454B1B68A3420AD00B
:103FB4007BB1DA68A2420AD01346F9E7238DB3F540
:103FC400066FE4D1D7E7DA683D4B1A6001E0E26896
:103FD400DA600023E3603B4B01221A70237D042B3B
:103FE40009D0394B1B68A3420FD021460120FFF7AB
:103FF400BFF8002549E00A232375344B1A68E260B0
:104004001C6002F0F7FA00253FE001F059FC00259E
:104014003BE0E38A8BB12E4B1B68A34205D053B11E
:10402400DA68A24205D01346F9E7DA68284B1A6029
:1040340001E0E268DA600023E36021460120FFF733
:1040440097F8002521E02046FFF7A0FB21462148F0
:10405400FFF75CFF21460220FFF78AF8002514E0F1
:1040640021461748FFF752FF0120164B18702146CE
:10407400FFF77EF8002508E0204601F041FF0546E1
:1040840008B90523237504B1A5B1284603B030BD92
:10409400204601F035FF05460028F4D10523237599
:1040A400F1E7204601F02CFF05460028EBD1092357
:1040B4002375E8E7204601F07FFFE6E70025E4E703
:1040C4004C38002048380020603800205C3800203C
:1040D400583800205438002010B50446084807F02A
:1040E400CDFE207DFFF7F2FE237D012B03D0A37EBE
:1040F40043F01003A37601212046FFF733FF10BDE0
:104104006CD8000810B5084612B953B1002007E076
:1041140014461189FFF79EFB2046FFF787F900201C
:1041240010BDFFF7D9FFFBE7F8B50446466F777B70
:1041340000234367D0F88050DDB132460146006960
:10414400A8470546EDB917F0200F20D0238DB3F50D
:10415400066F01D001332385D4F88060BEB10023FB
:104164001A4621462069B04710F10D0F0FD10546BC
:104174000DE00023324601461846FFF7C3FF05460B
:10418400E0E715F10D0F02D066676FF004052846CD
:10419400F8BD000070B5194A137801331370184B39
:1041A4001C6810E0174807F0F1FEA37E43F00203F9
:1041B400A376204601F000FFA37E23F00303A37639
:1041C4000CE0E5682C46BCB1627F0C4B1B789A422C
:1041D400F7D06377A37E13F0010FE3D1E568636F33
:1041E400002BEFD0084E002333702046FFF79CFFCE
:1041F4003378002BE6D0D2E770BD00BFE100002089
:104204004C38002084D800084838002008B5FFF74F
:10421400C1FF064A53780133DBB2537013F0010F28
:1042240000D108BDFFF7CCFBFBE700BFE100002095
:104234002DE9F04782B00446037D0A2B18D00D46C1
:10424400D0F84C80D0F82490D0F88C600769002B0B
:1042540039D1B0F816A0BAF1000F3ED0254B1B6837
:1042640083420ED09BB1DA68A2420ED01346F9E71E
:1042740001462148FFF74AFE21460120FEF778FF58
:104284001EE0DA681B4B1A6001E0E268DA60002580
:10429400E560AA46E06E08B1FFF71DFBA06E08B109
:1042A400FFF719FB206F08B1FFF715FBBDB92146D5
:1042B4000120FEF75DFF1EB16FF00C013846B047D8
:1042C40002B0BDE8F087B0F816A001460B48FFF72E
:1042D4001DFE0B4B01221A70DCE70025DAE7238B65
:1042E4000193CDF800A0231D22464946404601F023
:1042F4006DFFDCE7583800205C3800204C38002083
:104304004838002008B50121FFF792FF08BD0000DE
:1043140010B50C4B1B680022144600E0DB6843B167
:10432400186A09490968091A9142F7D30A461C46D2
:10433400F4E734B12146054807F0A0FD2046FFF715
:10434400E1FF10BD5C38002050380020A0D80008E0
:1043540070B510F0800F00D07F200E4B1B68002238
:10436400144643B934B121460B4807F087FD204673
:10437400FFF7C8FF70BD5D7D854208D81E6A0749F6
:104384000968891B914202D328460A461C46DB6809
:10439400E7E700BF4C380020DCD800085038002084
:1043A40038B50446084603E0C568FFF7ABFF284666
:1043B40028B1026823689A42F6D0C068F8E738BD8D
:1043C40008B338B50446026802B938BD0D460E4B31
:1043D4001968FFF7E5FF0D4B19682046FFF7E0FF6A
:1043E400002DF2D02B68002BEFD0094B1B6800E0A6
:1043F4001346002BE9D0DA68186821688842F7D19F
:1044040029681960F4E770474C38002058380020B8
:104414005438002038B5104B1A6800231C4600E0BD
:10442400D2685AB1117D8142FAD1156A0B490968E3
:10443400491B9942F4D30B461446F1E75CB1084A90
:1044440002EB80002246816A064807F017FD00212E
:104454002046FFF7EDFE38BD4C38002050380020D0
:1044640080D2000808D9000838B505460120FEF7B7
:1044740071FE0446002831D074B3982200212046EE
:1044840007F0F4FC65754FF48663A4F860304FF4CC
:10449400066363852385FF23A3724FF40673638643
:1044A4000623A4F84030E3874FF6FF7323860123E5
:1044B400A4F84830FFF764FC6065E0646064A065BC
:1044C4001E4B1B6823621E4B1B7863771D4BC4F87D
:1044D40080301D4BC4F89030204638BD1B4807F08F
:1044E40055FDFFF715FF0120FEF734FE04460028B2
:1044F400C2D1174807F04AFD0920FFF78BFF0120BE
:10450400FEF728FE04460028B6D1124807F03EFD07
:104514000820FFF77FFF0120FEF71CFE0446002859
:10452400AAD129460C4807F0A9FC2846FFF710FF3A
:104534000120FEF70FFE04469EE700BF503800201E
:10454400E10000200941000800DD6D003CD90008AD
:1045540070D90008A4D90008D8D9000808B54020AB
:10456400FFF782FF08BD00000D4B196879B11A46A8
:104574009B88D28893420AD310B45C1C0848848078
:10458400DBB2D2B29B1ADBB2C85C10BC7047044ADF
:1045940093689188481C90800B44187D704700BF35
:1045A400E400002038B51D4B9B89002B35D0044610
:1045B4001A4B00229A80194B9A889B899A422CD2D2
:1045C400FFF7D2FF0128F6D038B302281BD1FFF73A
:1045D400CBFF042821D1114A938802339289934254
:1045E4001BDCFFF7C1FF85B22D02ADB2FFF7BCFFA4
:1045F40080B205436B1E9BB2B3F5067F01D34FF423
:1046040006756586D7E7FFF7AFFF012805D9034A8A
:1046140093880344023B9380CDE738BDE400002037
:104624001B4B9B7B13F0040F30D130B583B013F0D8
:10463400020F1AD0164B1969436ACA1A002A1ADBE8
:10464400028D1344CB1A002B15DC11488368114AE0
:10465400848A1D8801955B880093134604322144A3
:10466400806901F0B3FD03B030BD13F0010F02D037
:10467400094B1B680362064B9B8A002BF3D0837E95
:1046840043F00203837601F097FCECE7704700BF28
:10469400E4000020CC020020503800203E4B9B7BDD
:1046A40013F0040F76D170B582B0044613F0100FE6
:1046B40004D113F0020F11D102B070BD364B9C68C7
:1046C400364A9D8A196998692388019363880093FF
:1046D40013460432294401F079FDEDE72E4B9B6823
:1046E4005A8819882E4807F0C9FB607DFFF7BCFE85
:1046F400054600283BD02B4B5A6902601B69436076
:10470400E38AC382244EB3681B880383032303759F
:1047140033695A1C4262C262013B03652369036127
:104724008467237A03F00C0303721F4B1A68C26078
:10473400186001F05FFF1D4B01221A702846FFF735
:1047440031FFB368DB89A5F85C30A5F85E30A5F8C5
:104754004A30291D688EFFF71FFB68861221284600
:1047640001F075FB88B9284601F026FCA4E710483F
:1047740007F00CFC002C9FD0A369002B9CD04FF0B9
:10478400FF3200212069984796E700212846FFF769
:104794004FFD91E7704700BFE4000020CC020020E9
:1047A40080DA0008BC0200204C3800204838002081
:1047B400A4DA000870B505460C4603699889FEF72B
:1047C40053FB10F0010F12D02046FFF784F80024A9
:1047D4002C6070BD2B699E890120FEF745FB2B6977
:1047E4003043988126682046FFF766F834468CB13A
:1047F4002B89114A1269134421694A6820890244A9
:104804009B1A002B06DB8889FEF72EFB10F0010FA4
:10481400E8D0DFE7002CDBD02B89074A11690B4471
:10482400226952689B1A002BD2DD521A91B2298157
:104834006868FEF7BBFECBE7E4000020F8B5044649
:10484400057D974B9B7B13F0100F00F03A81B0F875
:104854005C00626D8718216D914B1B69CE1A002E86
:1048640020DB994213D08E4989698A4215D08C4B3A
:104874009B69616C5A1A002A37DD012A03D4E26C61
:104884009A1A002A61DD204601F05DFBF4E08449B8
:104894008969511A0029E6DA04E0814A9268D289CA
:1048A4009042E4D27E4A9268D28991B2A4F85C2004
:1048B400B4F85E00814201D9A4F85E202365784BE8
:1048C4009B69636549B994F89530002BCFD184F87E
:1048D4009430012384F89530C9E794F89530002B7F
:1048E400C5D0002384F89530C1E76D4A928A2AB96D
:1048F400626DB4F85C000244BA4203D0002384F829
:104904004330B9E0B4F93020002AF7DB8B42F5D10B
:1049140094F84330FF2B02D0013384F8433094F8E9
:104924004330032B0AD9B4F84820638E13449BB256
:104934009A4280F0A180A4F848309DE0032B40F017
:104944009B80204601F0D2FC96E0A27E12F0040F78
:1049540006D022F00402A276B4F84A20A4F8482033
:10496400002184F84210B4F93C00E28F02EBE0022B
:10497400A4F8402084F843106364032D38D9B4F8B4
:104984004820B4F84A309A4207D2638E13449BB24B
:104994009A422DD2A4F848302AE0638E03FB03F335
:1049A40093FBF2F39BB213449BB29A4220D2A4F835
:1049B40048301DE000231E443544394B9B69ED1AF1
:1049C400002D27DCE56E2B68E3666868FEF71BFEA6
:1049D4006868FEF718FEB4F86230181AA4F862008A
:1049E4002B892F4A918B0B4493832846FEF764FF4F
:1049F400E36E7BB11B695868FEF73BFA0546E36E2C
:104A04001E891B699889FEF72FFA10F0030FD1D085
:104A14000123D0E7E36E23B1002323860023E3764A
:104A24002AE04FF6FF732386F8E7A4F8643010E019
:104A340000231F443E44AD1B002D33DB184B9B6900
:104A4400E26C9B1A002B2DDCA56E2B68A366002B51
:104A5400EBD06868FEF7D7FD6868FEF7D4FDB4F8BC
:104A64006230181AA4F862002B890D4A918B0B440A
:104A740093832846FEF720FFA36E9BB1084A9569ED
:104A84001B695868FEF7F5F90646A36E1F891B6972
:104A94009889FEF7E9F910F0030FC9D00123C8E79C
:104AA400E4000020B4F86030A24A928B1344A4F8C6
:104AB4006030636B2BB1A26B9E498969521A002A3C
:104AC40026DB9C4B9B8A002B00F08C82227D062ADD
:104AD40000F28882616A974A12698D1A012D04D402
:104AE4001344CB1A0133002B33DD521A002A58DB4E
:104AF400904B1969626A8B1A002B05DB238D1344D2
:104B0400CB1A0133002B51DD204601F01CFA79E267
:104B1400894A1268D21A92B2B4F93C10A2EBE102AB
:104B240092B213B2114409B2A187002B0EDBB4F97F
:104B34003E20A3EBA2039BB213449BB2E38703EB97
:104B4400E103A4F8403000236363BAE7524213B28E
:104B5400EDE7784B586A2B464289AA421CDA018950
:104B6400ADB24D1BA9B204E09B1A0181002242811F
:104B7400006842899A42F7DB5B4219B2FEF74CFCAB
:104B8400616A6C4A13695B1A9BB2108D03441385E6
:104B94001161136B5960ABE7694209B2FEF73CFC43
:104BA400EEE7A37E43F00203A376A1E7914208D087
:104BB400204601F0C8F9256F002D00F05181002630
:104BC40071E15C4B1D8D1B6B9889FEF74DF910F05C
:104BD400030F14D001232B449BB2564A9382228D97
:104BE40093420ED8236F002B4CD0524B1B6B9889E9
:104BF400FEF73AF910F0010F41D1256F6DE0002363
:104C0400E9E74C4B1B6B9889FEF72EF910F0010F66
:104C14001FD1228D474B1A851B6B9889FEF724F907
:104C240010F0020F03D0434A138D013B1385414D0D
:104C3400298D686AFEF7BAFC2E8D2B6B9889FEF7D6
:104C440013F910F0030F14D001233344394A93822B
:104C5400C8E7384E336B988920F47C55ADB2FEF723
:104C640003F900F03E00FEF7FFF8336B2843988108
:104C7400CFE70023E9E703682367FEF71DFE206FF3
:104C84000028F8D12B4DAA8A2B6913446362238D23
:104C94009B1A23852046FEF7BEFD6B6A1A8912B162
:104CA4006B6300236B62234B1B6B9889FEF7DCF864
:104CB40010F0010F00F08E801E4A92F8383043F055
:104CC400200382F8383085E000233B44194A93825C
:104CD4002E682846FEF7F0FD35467DB3154A938AC3
:104CE4001269134429694A68288902449B1A002BD3
:104CF40024DB8889FEF7B8F810F0010FE8D00D4BDB
:104D04001B6B9889FEF7B0F810F0020FE0D1094E42
:104D1400336B9F890120FEF7A7F8336B38439881E2
:104D2400378D336B9889FEF79FF810F0030FCBD0C3
:104D34000123CAE7E40000205038002045B1A74B06
:104D440019699B8A0B442A6952689B1A002B01DC5F
:104D5400256797E7521AA14B1A851B6B9889FEF7B2
:104D640083F810F0020F03D09C4A138D013B138586
:104D74009A4E318D706AFEF719FC378D336B988922
:104D8400FEF772F810F0030F04D001233B44934A5A
:104D94009382DDE70023F9E700232DE000233CE0C4
:104DA4008E4B596300236B602B699889FEF75CF87E
:104DB40010F0010F09D0894A92F8383043F02003EB
:104DC40082F83830237D042B39D02B68236728469A
:104DD400FEF772FD256F002D34D02A695368616A8D
:104DE4008B422FD17D490B612E899089FEF73CF8C7
:104DF40010F0030FD0D001239A19636A134463623D
:104E04002B699889FEF730F82E892B699889FEF76B
:104E14002BF810F0030FC1D001239A19238D9B1A8C
:104E240023852046FEF7F7FC69680B89002BBBD06D
:104E34006A4B586B0028B3D0FEF7F3FBB2E70723A5
:104E44002375C2E7A37E13F0010F05D003F0FE0320
:104E540043F00203A376D5E043F00103A376D1E047
:104E64005F48FEF742FD2067CCE05C4B1A8D2B892E
:104E74009A4240F2C7805A48FEF737FD034600289D
:104E840000F0C0802EB1306029461846FFF792FC2E
:104E9400B8E02067F8E7991A002934DB29682E4620
:104EA40000293AD00D46002D00F0AC8028694268F4
:104EB4004A4B1B699A42D8D0002EECD0316949681C
:104EC400591A0129EAD4991A01310029E6DC444827
:104ED400FEF70BFD0446002800F0948033695968FE
:104EE40032890A443D4B1B69D21A002A05DD5B1A3C
:104EF40099B231817068FEF759FB34602946204627
:104F0400FFF758FC7EE03648FEF7EFFC002879D026
:104F140020672946FFF74EFC74E09B1A002B01DC46
:104F24000D46C0E78089FDF79FFF10F0010F69D19E
:104F34002B48FEF7DAFC2860002863D02B695968F7
:104F44002A890A44254B1B69D21A002A3DDC234ACC
:104F5400938A12691344626A218D0A449B1A002BB6
:104F640050DD2B681B699889FDF77EFF10F0010F57
:104F74000FD02B681B69988920F47C56B6B2FDF7D4
:104F840073FF00F03E00FDF76FFF2B681B69304391
:104F94009881626A238D13449BB22A680F49096978
:104FA4005B1A13812B6819895868FEF7FFFA2B687E
:104FB4001C891B699889FDF757FF10F0030F0BD06C
:104FC40001232344054A93821CE05B1A99B2298188
:104FD4006868FEF7EBFABAE70023F2E7E400002082
:104FE40004010020084B1B69626A991A002905DB39
:104FF400218D0A449B1A0133002B03DDA37E43F069
:105004000203A376F8BD00BFE400002070B582B0AF
:105014000446A94B9B7B13F0040F31D0037D022B74
:1050240011D0426AA44B1B699A421BD0991A0029D9
:105034000EDB018D0A449B1A002B09DC837E43F0AE
:105044000203837604E0C26C9B4B9B699A4209D0AD
:10505400626A994B1969994806F010FF00252846A1
:1050640002B070BD944A92F8383043F0080382F8D5
:105074003830A37E23F00103A3766FF00D05EEE72D
:1050840013F0020F0AD0037D023BDBB2012B05D9DA
:10509400837E43F0020383760025E0E7A37E13F0CA
:1050A400100F02D1864B1B682362002384F89630CC
:1050B4002046FFF777FA237D023B072B00F2088294
:1050C400DFE813F008007E000401160174010401F6
:1050D400AA01E401784B9B7B03F01202122A04D04C
:1050E40013F0100F57D10025B9E7626C01327249F1
:1050F40089698A42F4D1704A1369581C6062E0627B
:1051040061649268D289A4F85C20A4F85E20013B13
:10511400236504232375E118608EFEF73DFE608647
:10512400B4F85C30A4F84A30430041F21C129342B4
:1051340038BF13468000834228BF0346A4F8483092
:10514400B4F86230013BA4F86230E06ED8B1036871
:10515400E366FEF7B1FBE36ECBB10023238684F84C
:105164004230D4F8843043B1002221462069984764
:10517400054610F10D0F3FF472AFA37E43F0020316
:10518400A37600256BE7A06E0368A366E1E74FF6FC
:10519400FF732386E5E7484B9D684A4A9E8A19694E
:1051A40098692B8801936B88009313460432314429
:1051B40001F00CF800252586204601F051F84EE751
:1051C4003D4B9B7B13F0100F64D03B4B9869636C91
:1051D400C31A012B03D4E36CC31A002B0FDD364B27
:1051E4009C68384A9D8A19692388019363880093CF
:1051F40013460432294400F0E9FF00252FE7042375
:1052040023752D4B1B6B5A8819882F4806F036FEE0
:10521400A36F8BB19B6993B1002221462069984703
:10522400054678B115F10D0F3FF419AF2046FFF78D
:1052340069F86FF00C0512E76FF00505F2E76FF0FF
:105244000F05EFE72046FFF7F9FAB4F85C30A4F84D
:105254004A30194B9B8B13B1013B174A9383628EDF
:10526400530041F21C118B4238BF0B46920093420B
:1052740028BF1346A4F848300F4B93F8383013F086
:10528400200F3FF4ECAEA37E43F00203A376072382
:105294002375E4E613F0020F00F01C81636A013BFE
:1052A400054A1269934201D00025D8E6204600F051
:1052B400F5FF0025D3E600BFE4000020D0DA0008A3
:1052C40050380020CC02002008DB00082046FFF7FD
:1052D400B5FA854B93F8383013F0200F00F0FC80BA
:1052E400A37E43F00203A376072323750025B6E6C5
:1052F4002046FFF7A3FA7C4B93F8383013F0200FC5
:105304003FD0794B9B7B13F0100F04D0E26C764BAB
:105314009B699A4207D0A37E43F00203A376082335
:10532400237500259BE6A36E002BF4D16E4B1B6BFB
:105334005A8819886D4806F0A1FDA37E43F0020344
:10534400A3762046FEF7FAFA694B1B68A34205D000
:105354003BB1DA68A24211D01346F9E7DA68644B2C
:105364001A60644B01221A700A232375624B1A686F
:10537400E2601C6001F03EF9002570E6E268DA6044
:10538400EFE7594B9B7B13F0100F00F0A780E26C02
:10539400554B9B699A4201D0002560E6A36E0BB180
:1053A40000255CE606232375002558E62046FFF712
:1053B40045FA4D4B93F8383013F0200F01D10025F6
:1053C4004DE6494B1B6B5A8819884C4806F056FD2C
:1053D400A37E43F00203A3762046FEF7AFFA444BC4
:1053E4001B68A34205D053B1DA68A24205D0134624
:1053F400F9E7DA683E4B1A6001E0E268DA603D4B97
:1054040001221A700A2323753B4B1A68E2601C6060
:1054140001F0F0F8002522E62046FFF70FFA324BA0
:105424009B7B13F0100F5BD0E26C2F4B9B699A426D
:1054340001D0002513E6A36E0BB100250FE62A4B1D
:105444001B6B5A8819882E4806F018FD2046FEF773
:1054540075FA274B1B68A34205D053B1DA68A24200
:1054640005D01346F9E7DA68214B1A6001E0E268D7
:10547400DA60204B01221A700A2323751E4B1A6826
:10548400E2601C6001F0B6F80025E8E52046FFF76D
:10549400D5F9154B9B7B13F0100F23D0E26C124B04
:1054A4009B699A4201D00025D9E5A36E0BB1002572
:1054B400D5E50D4C236B5A881988124806F0DEFC9A
:1054C40094F8383043F0100384F838300025C6E5EA
:1054D4000025C4E50025C2E50025C0E50025BEE59C
:1054E4000025BCE50025BAE5E400002030DB000817
:1054F4004C380020483800205C38002060DB00086D
:1055040090DB0008BCDB0008F0B583B004464268B9
:105514009A4B9A604389132B0BD9994B1968586994
:1055240003F005FA28B9964B5B6903F0F003E02B0E
:1055340004D12046FDF77AFF03B0F0BD8F4B9B6882
:105544009889FDF791FCC0F30F318900C9B2132982
:10555400EFD989B223899942EBD8A1F114039BB204
:10556400864A9381002010606289914234D8834A2C
:10557400D38049422046FDF74FFF804DAE68308806
:10558400FDF772FC3080AE687088FDF76DFC7080AA
:10559400AE687068FDF76DFC70602861AE68B06835
:1055A400FDF767FCB060A861AE68F089FDF75CFCAC
:1055B400F081AB689889FDF757FC00F03F07AF73A3
:1055C400238917F0030218BF01221344AB826D4BE9
:1055D40018680546002620E06FF013012046FDF709
:1055E4001BFF6389654AD3809589ED1AADB25B428E
:1055F40019B22046FDF710FF20684389AB4298D3C7
:1056040042685E4B1A60694209B2FDF705FF2389BF
:105614005D1B2581B1E72E46ED68CDB1298B574B33
:105624009B681A889142F6D1EA8A5B889A42F2D141
:105634006A68534B1B699A42EDD12A68504B5B69E7
:105644009A42E8D1EB681EB1F360E8604D4B1D60EF
:10565400002D4ED0002D00F00E81484B00221A621E
:10566400218919855C62996819635A6383F8382023
:105674009A8317F0080F03D0637B43F0010363732D
:105684006B6F53B12846FEF74FFD10F10D0F21D07B
:105694006B6F13B1394B9B8AE3B93B4B1D602846B2
:1056A400FFF7B4FC10F10D0F14D0344B93F83830DD
:1056B40013F0080F6ED0D5F88C301BB16FF00D01CC
:1056C4002869984729462F48FEF720FC29460120DF
:1056D400FDF74EFD00222C4B1A60284B5A63586A82
:1056E40020B1FDF7A3FE254B00225A62FEF7FCFB16
:1056F40022E7264B1D6800E0ED68D5B1298B1F4BCE
:105704009B681A889142F7D1EA8A5B889A42F3D15E
:105714006A681B4B1B699A42EED12A68184B5B6975
:105724009A42E9D12846FEF77BFF2046FDF77EFE2C
:1057340002E7174B1E683046294601E00146C0685F
:1057440068B1C28A0D4B9B685B889A42F6D10368A4
:105754000B4A5269934202D008B1002BEED10028C3
:105764003FF478AF21B1C368CB60C660084B1860C2
:10577400FEF794FF2046FDF759FEDDE6E400002025
:10578400BC0200204C380020603800205C38002027
:1057940054380020464B9A8B52B1EB6F2BB12946FB
:1057A4002869984710F10D0F94D0414B00229A8339
:1057B4003F4B93F8383013F0100F13D0AB7E13F037
:1057C400100F06D1D5F88C301BB16FF00E0128698B
:1057D400984729463748FEF799FB29460120FDF7EB
:1057E400C7FC77E7324B5A6B92B1AB7E13F0100FC4
:1057F40021D1D5F880402CB3002329462869A0473D
:1058040010F10D0F3FF466AF10B1294B5B6B6B6762
:10581400274B93F8383013F0200F05D06B6FBBB1D2
:105824005A7B42F020025A73234B00221A60284606
:1058340000F0C2FB4EE71046FDF7F8FD2846FEF7E0
:1058440061FD47E7002329461846FEF75BFCD7E7CE
:105854002B8DB3F5066F01D001332B85D5F880402D
:10586400002CE1D000231A4629462869A04710F1EC
:105874000D0FD9D12EE70E4B9B689889FDF7F4FAEA
:1058840010F0040F03D02046FDF7D0FD2EE70848A2
:1058940083680A4A858A01691E8801965B88009399
:1058A400134604322944806900F090FCEBE700BF02
:1058B400E40000204C38002060380020CC02002096
:1058C400034A92F8383043F0100382F838307047B6
:1058D400E4000020037D042B05D0072B03D0022B0A
:1058E40001D0032B18D1D1B1B0F860308B4205D36D
:1058F400B0F86230082B08D800207047837E63F02C
:105904007F0383764FF0FF307047837E63F07F031D
:1059140083764FF0FF3070476FF00A007047002025
:10592400704738B50C461D469DF81830914215D283
:105934009DF8141011F0020F08D10499897E11F01A
:10594400400F1DD113B1049B9B6E9BB104F21B212C
:1059540021F003018A4228BF0A4691B20022FDF7D2
:1059640091FD034620B14289121B2A80048144819F
:10597400184638BD049BDB6E002BE7D12146EDE7CA
:105984002146EBE72DE9F04780460E461746994637
:105994009DF820A00320FDF7DDFB044698B34FEAF1
:1059A4008A0505F0040580F80CA000220260466018
:1059B40033895B1B0381428114213046FDF72CFDA2
:1059C40028BB63685E682661B8F81600FDF74CFAD8
:1059D40030802669B8F81800FDF746FA7080266909
:1059E4004846FDF746FA7060A8080530256947EA7D
:1059F4000030FDF739FAA881236900229A74DA7419
:105A04002046BDE8F0873046FDF710FDF8E7204654
:105A1400FDF752FF0024F3E72DE9F04106460C465A
:105A24009846114489B21431002289B20120FDF74D
:105A340029FD074620B34568F08AFDF715FA28804A
:105A4400308BFDF711FA6880C5F80480706AFDF7A1
:105A540010FAA860A0080530000380B240F01000DE
:105A6400FDF702FAA881708DFDF7FEF9E8810023A5
:105A74002B746B74AB74EB74736A728D1344F3629E
:105A84003846BDE8F08100004368DB89012B01D072
:105A940000207047F0B585B016460D4604460769E8
:105AA400486AFDF7E6F9B8602769688DFDF7DCF907
:105AB400F8816B6A6A8D1344EB622769237B13F0C8
:105AC400010F26D1B5F93030002B2DDB6B6B002B89
